{
  "_format": "hh-sol-artifact-1",
  "contractName": "WavePortal",
  "sourceName": "contracts/WavePortal.sol",
  "abi": [
    {
      "inputs": [],
      "stateMutability": "payable",
      "type": "constructor"
    },
    {
      "anonymous": false,
      "inputs": [
        {
          "indexed": true,
          "internalType": "address",
          "name": "from",
          "type": "address"
        },
        {
          "indexed": false,
          "internalType": "uint256",
          "name": "timestamp",
          "type": "uint256"
        },
        {
          "indexed": false,
          "internalType": "string",
          "name": "musicLink",
          "type": "string"
        }
      ],
      "name": "NewRecommendation",
      "type": "event"
    },
    {
      "inputs": [],
      "name": "getAllRecommendationsCount",
      "outputs": [
        {
          "internalType": "uint256",
          "name": "",
          "type": "uint256"
        }
      ],
      "stateMutability": "view",
      "type": "function"
    },
    {
      "inputs": [],
      "name": "getRecommendations",
      "outputs": [
        {
          "components": [
            {
              "internalType": "address",
              "name": "waver",
              "type": "address"
            },
            {
              "internalType": "string",
              "name": "musicLink",
              "type": "string"
            },
            {
              "internalType": "uint256",
              "name": "timestamp",
              "type": "uint256"
            }
          ],
          "internalType": "struct WavePortal.Recommendation[]",
          "name": "",
          "type": "tuple[]"
        }
      ],
      "stateMutability": "view",
      "type": "function"
    },
    {
      "inputs": [
        {
          "internalType": "address",
          "name": "",
          "type": "address"
        }
      ],
      "name": "lastWavedAt",
      "outputs": [
        {
          "internalType": "uint256",
          "name": "",
          "type": "uint256"
        }
      ],
      "stateMutability": "view",
      "type": "function"
    },
    {
      "inputs": [
        {
          "internalType": "string",
          "name": "_musicLink",
          "type": "string"
        }
      ],
      "name": "sendRecommendation",
      "outputs": [],
      "stateMutability": "nonpayable",
      "type": "function"
    }
  ],
  "bytecode": "0x60806040526200003360405180606001604052806025815260200162001343602591396200005b60201b620006051760201c565b60644442620000439190620001a8565b6200004f919062000245565b600181905550620002ec565b620000fb8160405160240162000072919062000168565b6040516020818303038152906040527f41304fac000000000000000000000000000000000000000000000000000000007bffffffffffffffffffffffffffffffffffffffffffffffffffffffff19166020820180517bffffffffffffffffffffffffffffffffffffffffffffffffffffffff8381831617835250505050620000fe60201b60201c565b50565b60008151905060006a636f6e736f6c652e6c6f679050602083016000808483855afa5050505050565b600062000134826200018c565b62000140818562000197565b9350620001528185602086016200020f565b6200015d81620002db565b840191505092915050565b6000602082019050818103600083015262000184818462000127565b905092915050565b600081519050919050565b600082825260208201905092915050565b6000620001b58262000205565b9150620001c28362000205565b9250827fffffffffffffffffffffffffffffffffffffffffffffffffffffffffffffffff03821115620001fa57620001f96200027d565b5b828201905092915050565b6000819050919050565b60005b838110156200022f57808201518184015260208101905062000212565b838111156200023f576000848401525b50505050565b6000620002528262000205565b91506200025f8362000205565b925082620002725762000271620002ac565b5b828206905092915050565b7f4e487b7100000000000000000000000000000000000000000000000000000000600052601160045260246000fd5b7f4e487b7100000000000000000000000000000000000000000000000000000000600052601260045260246000fd5b6000601f19601f8301169050919050565b61104780620002fc6000396000f3fe608060405234801561001057600080fd5b506004361061004c5760003560e01c80630295e92814610051578063759f78da1461006f578063a42a46631461008d578063ed6a0cb2146100bd575b600080fd5b6100596100d9565b6040516100669190610be9565b60405180910390f35b6100776100e2565b6040516100849190610b15565b60405180910390f35b6100a760048036038101906100a29190610883565b610233565b6040516100b49190610be9565b60405180910390f35b6100d760048036038101906100d291906108ac565b61024b565b005b60008054905090565b60606002805480602002602001604051908101604052809291908181526020016000905b8282101561022a57838290600052602060002090600302016040518060600160405290816000820160009054906101000a900473ffffffffffffffffffffffffffffffffffffffff1673ffffffffffffffffffffffffffffffffffffffff1673ffffffffffffffffffffffffffffffffffffffff16815260200160018201805461018f90610dcf565b80601f01602080910402602001604051908101604052809291908181526020018280546101bb90610dcf565b80156102085780601f106101dd57610100808354040283529160200191610208565b820191906000526020600020905b8154815290600101906020018083116101eb57829003601f168201915b5050505050815260200160028201548152505081526020019060010190610106565b50505050905090565b60036020528060005260406000206000915090505481565b42610384600360003373ffffffffffffffffffffffffffffffffffffffff1673ffffffffffffffffffffffffffffffffffffffff168152602001908152602001600020546102999190610cfb565b106102d9576040517f08c379a00000000000000000000000000000000000000000000000000000000081526004016102d090610bc9565b60405180910390fd5b42600360003373ffffffffffffffffffffffffffffffffffffffff1673ffffffffffffffffffffffffffffffffffffffff16815260200190815260200160002081905550600160008082825461032f9190610cfb565b925050819055506103756040518060400160405280601381526020017f257320686173207265636f6d6d656e64656421000000000000000000000000008152503361069e565b600260405180606001604052803373ffffffffffffffffffffffffffffffffffffffff16815260200183815260200142815250908060018154018082558091505060019003906000526020600020906003020160009091909190915060008201518160000160006101000a81548173ffffffffffffffffffffffffffffffffffffffff021916908373ffffffffffffffffffffffffffffffffffffffff1602179055506020820151816001019080519060200190610434929190610763565b50604082015181600201555050606460015442446104529190610cfb565b61045c9190610cfb565b6104669190610e32565b6001819055506032600154116105b2576104b56040518060400160405280600781526020017f257320776f6e21000000000000000000000000000000000000000000000000008152503361069e565b6000655af3107a4000905047811115610503576040517f08c379a00000000000000000000000000000000000000000000000000000000081526004016104fa90610ba9565b60405180910390fd5b60003373ffffffffffffffffffffffffffffffffffffffff168260405161052990610b00565b60006040518083038185875af1925050503d8060008114610566576040519150601f19603f3d011682016040523d82523d6000602084013e61056b565b606091505b50509050806105af576040517f08c379a00000000000000000000000000000000000000000000000000000000081526004016105a690610b89565b60405180910390fd5b50505b3373ffffffffffffffffffffffffffffffffffffffff167fd3efbb8c6489c5509717c60f6311a90e0d700f0e5d285fa6193662c14fd1da4642836040516105fa929190610c04565b60405180910390a250565b61069b816040516024016106199190610b37565b6040516020818303038152906040527f41304fac000000000000000000000000000000000000000000000000000000007bffffffffffffffffffffffffffffffffffffffffffffffffffffffff19166020820180517bffffffffffffffffffffffffffffffffffffffffffffffffffffffff838183161783525050505061073a565b50565b61073682826040516024016106b4929190610b59565b6040516020818303038152906040527f319af333000000000000000000000000000000000000000000000000000000007bffffffffffffffffffffffffffffffffffffffffffffffffffffffff19166020820180517bffffffffffffffffffffffffffffffffffffffffffffffffffffffff838183161783525050505061073a565b5050565b60008151905060006a636f6e736f6c652e6c6f679050602083016000808483855afa5050505050565b82805461076f90610dcf565b90600052602060002090601f01602090048101928261079157600085556107d8565b82601f106107aa57805160ff19168380011785556107d8565b828001600101855582156107d8579182015b828111156107d75782518255916020019190600101906107bc565b5b5090506107e591906107e9565b5090565b5b808211156108025760008160009055506001016107ea565b5090565b600061081961081484610c59565b610c34565b90508281526020810184848401111561083157600080fd5b61083c848285610d8d565b509392505050565b60008135905061085381610ffa565b92915050565b600082601f83011261086a57600080fd5b813561087a848260208601610806565b91505092915050565b60006020828403121561089557600080fd5b60006108a384828501610844565b91505092915050565b6000602082840312156108be57600080fd5b600082013567ffffffffffffffff8111156108d857600080fd5b6108e484828501610859565b91505092915050565b60006108f98383610a92565b905092915050565b61090a81610d51565b82525050565b61091981610d51565b82525050565b600061092a82610c9a565b6109348185610cbd565b93508360208202850161094685610c8a565b8060005b85811015610982578484038952815161096385826108ed565b945061096e83610cb0565b925060208a0199505060018101905061094a565b50829750879550505050505092915050565b600061099f82610ca5565b6109a98185610cd9565b93506109b9818560208601610d9c565b6109c281610f1f565b840191505092915050565b60006109d882610ca5565b6109e28185610cea565b93506109f2818560208601610d9c565b6109fb81610f1f565b840191505092915050565b6000610a13602783610cea565b9150610a1e82610f30565b604082019050919050565b6000610a36603583610cea565b9150610a4182610f7f565b604082019050919050565b6000610a59600083610cce565b9150610a6482610fce565b600082019050919050565b6000610a7c600883610cea565b9150610a8782610fd1565b602082019050919050565b6000606083016000830151610aaa6000860182610901565b5060208301518482036020860152610ac28282610994565b9150506040830151610ad76040860182610ae2565b508091505092915050565b610aeb81610d83565b82525050565b610afa81610d83565b82525050565b6000610b0b82610a4c565b9150819050919050565b60006020820190508181036000830152610b2f818461091f565b905092915050565b60006020820190508181036000830152610b5181846109cd565b905092915050565b60006040820190508181036000830152610b7381856109cd565b9050610b826020830184610910565b9392505050565b60006020820190508181036000830152610ba281610a06565b9050919050565b60006020820190508181036000830152610bc281610a29565b9050919050565b60006020820190508181036000830152610be281610a6f565b9050919050565b6000602082019050610bfe6000830184610af1565b92915050565b6000604082019050610c196000830185610af1565b8181036020830152610c2b81846109cd565b90509392505050565b6000610c3e610c4f565b9050610c4a8282610e01565b919050565b6000604051905090565b600067ffffffffffffffff821115610c7457610c73610ef0565b5b610c7d82610f1f565b9050602081019050919050565b6000819050602082019050919050565b600081519050919050565b600081519050919050565b6000602082019050919050565b600082825260208201905092915050565b600081905092915050565b600082825260208201905092915050565b600082825260208201905092915050565b6000610d0682610d83565b9150610d1183610d83565b9250827fffffffffffffffffffffffffffffffffffffffffffffffffffffffffffffffff03821115610d4657610d45610e63565b5b828201905092915050565b6000610d5c82610d63565b9050919050565b600073ffffffffffffffffffffffffffffffffffffffff82169050919050565b6000819050919050565b82818337600083830152505050565b60005b83811015610dba578082015181840152602081019050610d9f565b83811115610dc9576000848401525b50505050565b60006002820490506001821680610de757607f821691505b60208210811415610dfb57610dfa610ec1565b5b50919050565b610e0a82610f1f565b810181811067ffffffffffffffff82111715610e2957610e28610ef0565b5b80604052505050565b6000610e3d82610d83565b9150610e4883610d83565b925082610e5857610e57610e92565b5b828206905092915050565b7f4e487b7100000000000000000000000000000000000000000000000000000000600052601160045260246000fd5b7f4e487b7100000000000000000000000000000000000000000000000000000000600052601260045260246000fd5b7f4e487b7100000000000000000000000000000000000000000000000000000000600052602260045260246000fd5b7f4e487b7100000000000000000000000000000000000000000000000000000000600052604160045260246000fd5b6000601f19601f8301169050919050565b7f4661696c656420746f207769746864726177206d6f6e65792066726f6d20636f60008201527f6e74726163742e00000000000000000000000000000000000000000000000000602082015250565b7f547279696e6720746f207769746864726177206d6f7265206d6f6e657920746860008201527f616e207468657920636f6e7472616374206861732e0000000000000000000000602082015250565b50565b7f576169742031356d000000000000000000000000000000000000000000000000600082015250565b61100381610d51565b811461100e57600080fd5b5056fea26469706673582212205faa79274907985f2d8e675f2b980a1492f48f489a9d9639578e5b54c654b79b64736f6c63430008040033457468657265756d2053706f746966792057617665706f7274616c20436f6e747261637421",
  "linkReferences": {},
  "deployedLinkReferences": {}
}